:020000040000FA
:060000009EEF0BF0120060
:020006001200E6
:080008009EAA02D00AEF09F0E4
:020010001200DC
:0100120000ED
:02001300FFFFED
:08001800F2A402D083EF08F00E
:0C0020001200D08E9F8AF28EF28C12002B
:04002C0006001300B7
:100030000000E90E00000200000012000000EE0EB9
:10004000000001000000901900001E0E0000C10019
:1000500000007C18000000090000140100005E1878
:100060000000000E00001E00000058170000000BEA
:0600700000000601000083
:0A007600D20EE66E050EE66EDD0EFA
:10008000E66ECC0EE66EBB0EE66EAA0EE66E34ECA5
:1000900006F00B6E060EE15E0B501200D9CFE6FFA4
:1000A000E1CFD9FF020EE126010EDB6ADF6A400EC6
:1000B000DF5C01E384D2DF50030DF3CFE9FFF4CF1F
:1000C000EAFF1E0EE9260E0EEA22020EE926000EB7
:1000D000EA22EF0401E071D2DF50030DF3CFE9FF14
:1000E000F4CFEAFF1E0EE9260E0EEA22020EE926E2
:1000F000000EEA22EF6ADF50030DF3CFE9FFF4CFE1
:10010000EAFF1E0EE9260E0EEA22010EEFCFDBFFFC
:10011000010EDB50280A01E13ED20F0A01E12AD28A
:10012000010A01E116D2030A01E102D2010A01E14A
:10013000EED1070A01E1DAD1010A01E1C6D1030AD1
:1001400001E1B2D13F0A01E19ED1030A01E18AD166
:10015000010A01E176D1070A01E162D1030A01E156
:100160004ED10F0A01E13AD1010A01E126D1030A79
:1001700001E112D1010A01E1FED0070A01E1EAD052
:10018000010A01E1D6D0030A01E1C2D0010A01E16E
:10019000AED01F0A01E19AD0050A01E186D0030A18
:1001A00073E00E0A60E0010A4DE0030A3AE0010A3A
:1001B00027E0070A14E0010A01E0FED1DF50030D39
:1001C000F3CFE9FFF4CFEAFF1E0EE9260E0EEA2276
:1001D000EE52EF50E8B08080E8A08090EED1DF5082
:1001E000030DF3CFE9FFF4CFEAFF1E0EE9260E0E52
:1001F000EA22EE52EF50E8B08082E8A08092DDD192
:10020000DF50030DF3CFE9FFF4CFEAFF1E0EE9261E
:100210000E0EEA22EE52EF50E8B08084E8A08094FF
:10022000CCD1DF50030DF3CFE9FFF4CFEAFF1E0E70
:10023000E9260E0EEA22EE52EF50E8B08086E8A0E2
:100240008096BBD1DF50030DF3CFE9FFF4CFEAFF77
:100250001E0EE9260E0EEA22EE52EF50E8B080881C
:10026000E8A08098AAD1DF50030DF3CFE9FFF4CFC7
:10027000EAFF1E0EE9260E0EEA22EE52EF50E8B01B
:10028000808AE8A0809A99D1DF50030DF3CFE9FF6F
:10029000F4CFEAFF1E0EE9260E0EEA22EE52EF50D0
:1002A000E8B08482E8A0849288D1DF50030DF3CFB8
:1002B000E9FFF4CFEAFF1E0EE9260E0EEA22EE5207
:1002C000EF50E8B08484E8A0849477D1DF50030D28
:1002D000F3CFE9FFF4CFEAFF1E0EE9260E0EEA2265
:1002E000EE52EF50E8B08280E8A0829066D1DF50F5
:1002F000030DF3CFE9FFF4CFEAFF1E0EE9260E0E41
:10030000EA22EE52EF50E8B08282E8A0829255D104
:10031000DF50030DF3CFE9FFF4CFEAFF1E0EE9260D
:100320000E0EEA22EE52EF50E8B08284E8A08294EA
:1003300044D1DF50030DF3CFE9FFF4CFEAFF1E0EE7
:10034000E9260E0EEA22EE52EF50E8B08286E8A0CF
:10035000829633D1DF50030DF3CFE9FFF4CFEAFFEC
:100360001E0EE9260E0EEA22EE52EF50E8B0838010
:10037000E8A0839022D1DF50030DF3CFE9FFF4CF43
:10038000EAFF1E0EE9260E0EEA22EE52EF50E8B00A
:100390008382E8A0839211D1DF50030DF3CFE9FFF0
:1003A000F4CFEAFF1E0EE9260E0EEA22EE52EF50BF
:1003B000E8B08384E8A0839400D1DF50030DF3CF2D
:1003C000E9FFF4CFEAFF1E0EE9260E0EEA22EE52F6
:1003D000EF50E8B08386E8A08396EFD0DF50030D9E
:1003E000F3CFE9FFF4CFEAFF1E0EE9260E0EEA2254
:1003F000EE52EF50E8B08288E8A08298DED0DF505D
:10040000030DF3CFE9FFF4CFEAFF1E0EE9260E0E2F
:10041000EA22EE52EF50E8B0828AE8A0829ACDD06C
:10042000DF50030DF3CFE9FFF4CFEAFF1E0EE926FC
:100430000E0EEA22EE52EF50E8B08388E8A08398CF
:10044000BCD0DF50030DF3CFE9FFF4CFEAFF1E0E5F
:10045000E9260E0EEA22EE52EF50E8B0838AE8A0B9
:10046000839AABD0DF50030DF3CFE9FFF4CFEAFF5F
:100470001E0EE9260E0EEA22EE52EF50E8B0838CF3
:10048000E8A0839C9AD0DF50030DF3CFE9FFF4CFAF
:10049000EAFF1E0EE9260E0EEA22EE52EF50E8B0F9
:1004A000838EE8A0839E89D0DF50030DF3CFE9FF50
:1004B000F4CFEAFF1E0EE9260E0EEA22EE52EF50AE
:1004C000E8B08180E8A0819078D0DF50030DF3CFB1
:1004D000E9FFF4CFEAFF1E0EE9260E0EEA22EE52E5
:1004E000EF50E8B08182E8A0819267D0DF50030D21
:1004F000F3CFE9FFF4CFEAFF1E0EE9260E0EEA2243
:10050000EE52EF50E8B08184E8A0819456D0DF50DD
:10051000030DF3CFE9FFF4CFEAFF1E0EE9260E0E1E
:10052000EA22EE52EF50E8B08186E8A0819645D0ED
:10053000DF50030DF3CFE9FFF4CFEAFF1E0EE926EB
:100540000E0EEA22EE52EF50E8B08188E8A08198C2
:1005500034D0DF50030DF3CFE9FFF4CFEAFF1E0ED6
:10056000E9260E0EEA22EE52EF50E8B0818AE8A0AA
:10057000819A23D0DF50030DF3CFE9FFF4CFEAFFD8
:100580001E0EE9260E0EEA22EE52EF50E8B0818CE4
:10059000E8A0819C12D0DF50030DF3CFE9FFF4CF28
:1005A000EAFF1E0EE9260E0EEA22EE52EF50E8B0E8
:1005B000818EE8A0819E01D000D0DF2A78D5020E7E
:1005C000E15C02E2E16AE552E16EE552E7CFD9FF74
:1005D0001200D9CFE6FFE1CFD9FF040EE126FD0ED0
:1005E000DBCFE9FFFE0EDBCFEAFF010EEFCFDBFF33
:1005F000010EE76EFD0EDBCFE9FFFE0EDBCFEAFF5B
:10060000E750E926000EEA22020EEFCFDBFF030ED1
:10061000DB6AFB0EDBCFE9FFFC0EDBCFEAFF010E4E
:10062000DBCFEFFF0E01DE51030DF3CFE9FFF4CF77
:10063000EAFF1E0EE9260E0EEA22010EDBCFEFFFC7
:100640000E01DE51030DF3CFE9FFF4CFEAFF1E0EDA
:10065000E9260E0EEA22EE52020EDBCFEFFF0E016C
:10066000DE51030DF3CFE9FFF4CFEAFF1E0EE926BA
:100670000E0EEA22020EE926000EEA22010EEF6EAD
:100680000E01DE2B400E0E01DE5D02E30E01DE6B7D
:100690000B6E040EE15C02E2E16AE552E16E0B5082
:0806A000E552E7CFD9FF12007B
:0806A800DACFE4FFE2CFDAFF34
:1006B000E9CFE4FFEACFE4FFF6CFE4FFF7CFE4FFB2
:1006C000F5CFE4FFF3CFE4FFF4CFE4FFFACFE4FF8C
:1006D00000EE00F00B0EE80403E3EECFE4FFFBD7DF
:1006E00000EE0BF0020EE80403E3EECFE4FFFBD7CD
:1006F000E652D9CFE6FFE1CFD9FFE652F9EC0AF096
:10070000DF6E0C018951892BEA6A8C0FE96E0C0EA1
:10071000EA22DFCFEFFF800E0C01895D02E30C01BE
:10072000896B0C018B2BA49AE552E552E7CFD9FFD8
:10073000E55200EE0CF0020EE80403E3E5CFEDFF16
:10074000FBD700EE0AF00B0EE80403E3E5CFEDFF64
:10075000FBD7E5CFFAFFE5CFF4FFE5CFF3FFE5CF19
:10076000F5FFE5CFF7FFE5CFF6FFE5CFEAFFE5CFF1
:10077000E9FFE5CFDAFF1100DACFE4FFE2CFDAFFDD
:10078000E9CFE4FFEACFE4FFE652D9CFE6FFE1CFBD
:10079000D9FFE6520B01025104E1ACA2FED7AC9A9C
:1007A00021D00B010151EA6A030FE96E0B0EEA2218
:1007B000EFCFDFFFDF50AD6E0B01012B800E0B0181
:1007C000015D02E30B01016B000E0B01E76E0219E4
:1007D000E8AE02D0023503D0E750D880025502E2DD
:1007E0000B010207E552E552E7CFD9FFE552E5CF0D
:1007F000EAFFE5CFE9FFE5CFDAFF1100DACFE4FF4A
:10080000E2CFDAFFE9CFE4FFEACFE4FFE652D9CF47
:10081000E6FFE1CFD9FFE6520C01085104E172A2D4
:10082000FED7729A21D00C010751EA6A090FE96ECE
:100830000C0EEA22EFCFDFFFDF50736E0C01072BA7
:10084000800E0C01075D02E30C01076B000E0C012A
:10085000E76E0819E8AE02D0083503D0E750D8801B
:10086000085502E20C010807E552E552E7CFD9FF2F
:10087000E552E5CFEAFFE5CFE9FFE5CFDAFF11006A
:10088000D9CFE6FFE1CFD9FFE6527C0EDF6E0F0E27
:10089000E66EE66ADFCFE6FF91EC0AF0E552E5523C
:1008A000E552AC8AAC9EE552E552E7CFD9FF120083
:1008B000D9CFE6FFE1CFD9FFE6527C0EDF6E670E9F
:1008C000E66EE66ADFCFE6FF55EC0AF0E552E55248
:1008D000E552D08E718E728A729EA38AA58AE552E5
:1008E000E552E7CFD9FF1200D9CFE6FFE1CFD9FF1C
:1008F000ACA2FED70B010051002BEA6A030FE96E90
:100900000B0EEA22FE0EDBCFEFFF0B01022B800E57
:100910000B01005D02E30B01006B010E00D0E552FC
:10092000E7CFD9FF1200D9CFE6FFE1CFD9FF72A2FE
:10093000FED70C010651062BEA6A090FE96E0C0E70
:10094000EA22FE0EDBCFEFFF0C01082B800E0C011C
:10095000065D02E30C01066B010E00D0E552E7CF05
:10096000D9FF1200D9CFE6FFE1CFD9FF060EE1266D
:10097000010EF36E020EF3CFDBFF030EDB6A020EF5
:10098000DBCF0BF0DB06030EDBCF0CF001E2DB0666
:100990000B500C1006E0040EE66E6FEC0BF0E55207
:1009A000EED7000E0B01E76E0219E8AE02D0023559
:1009B00003D0E750D880025528E20B010151EA6AC2
:1009C000030FE96E0B0EEA22010EEFCFDBFFACA2A4
:1009D000FED7010EDB50AD6EACA2FED70B01012B92
:1009E000800E0B01015D02E30B01016B000E0B0198
:1009F000E76E0219E8AE02D0023503D0E750D88086
:100A0000025502E20B010207CCD7010EF36E040E71
:100A1000F3CFDBFF050EDB6A040EDBCF0BF0DB064A
:100A2000050EDBCF0CF001E2DB060B500C1006E0EC
:100A3000040EE66E6FEC0BF0E552EED70B6E060E71
:100A4000E15C02E2E16AE552E16E0B50E552E7CF6C
:100A5000D9FF1200D9CFE6FFE1CFD9FF060EE1267C
:100A6000010EF36E020EF3CFDBFF030EDB6A020E04
:100A7000DBCF0BF0DB06030EDBCF0CF001E2DB0675
:100A80000B500C1006E0040EE66E6FEC0BF0E55216
:100A9000EED7000E0C01E76E0819E8AE02D008355B
:100AA00003D0E750D880085528E20C010751EA6AC4
:100AB000090FE96E0C0EEA22010EEFCFDBFF72A2E6
:100AC000FED7010EDB50736E72A2FED70C01072B0E
:100AD000800E0C01075D02E30C01076B000E0C0198
:100AE000E76E0819E8AE02D0083503D0E750D88089
:100AF000085502E20C010807CCD7010EF36E040E74
:100B0000F3CFDBFF050EDB6A040EDBCF0BF0DB0659
:100B1000050EDBCF0CF001E2DB060B500C1006E0FB
:100B2000040EE66E6FEC0BF0E552EED70B6E060E80
:100B3000E15C02E2E16AE552E16E0B50E552E7CF7B
:100B4000D9FF1200D9CFE6FFE1CFD9FFE652DF6A25
:100B5000A39A000E0C01E76E8B19E8AE02D08B351C
:100B600003D0E750D8808B5502E2010EDF6EA38AD6
:100B7000DF5000D0E552E552E7CFD9FF1200D9CFC0
:100B8000E6FFE1CFD9FFE652DF6A9D9A000E0B0126
:100B9000E76E8519E8AE02D0853503D0E750D880DE
:100BA000855502E2010EDF6E9D8ADF5000D0E552CE
:100BB000E552E7CFD9FF1200D9CFE6FFE1CFD9FF49
:100BC000E6529D9A0B018451842BEA6A860FE96EE6
:100BD0000B0EEA22EFCFDFFF800E0B01845D02E3F4
:100BE0000B01846B000E0B01E76E8519E8AE02D095
:100BF000853503D0E750D880855502E20B01850783
:100C00009D8ADF5000D0E552E552E7CFD9FF1200B0
:100C1000D9CFE6FFE1CFD9FFE652A39A0C018A5162
:100C20008A2BEA6A8C0FE96E0C0EEA22EFCFDFFF07
:100C3000800E0C018A5D02E30C018A6B000E0C0130
:100C4000E76E8B19E8AE02D08B3503D0E750D88021
:100C50008B5502E20C018B079D8ADF5000D0E552D4
:080C6000E552E7CFD9FF1200B5
:080C6800D9CFE6FFE1CFD9FF6F
:100C7000FE0EDBCF01F9FD0EDBCF02F9FC0EDBCF60
:100C800003F9FB0EDBCF04F9F90EDBCF09FAFA0EFC
:100C9000DBCF0AFA04D8E552E7CFD9FF120040ECC7
:100CA00004F00A01056B0A01066B0901010E006FD1
:100CB0000A01076B0A01050E086F0FCA0BFA10CA6A
:100CC0000CFA11CA0DFA12CA0EFA00C913FA120070
:100CD0000A01056B0A01066B0901010E006F0A018A
:100CE000076B0A01050E086F0FCA0BFA10CA0CFA3F
:100CF00011CA0DFA12CA0EFA00C913FA1200D9CF9E
:100D0000E6FFE1CFD9FF060EE126DF6A96EC09F097
:100D100004C00FFA05C010FA06C011FA07C012FA93
:100D20000B0EE96E0A0EEA6EEE500A010F190CE185
:100D3000EE500A01101908E1EE500A01111904E100
:100D4000EE500A01121900E118E0090100510A01F0
:100D5000135D0BE1020E0901005D07E10A010807BE
:100D60000A01085102E19BDFD3D00FCA0BFA10CA67
:100D70000CFA11CA0DFA12CA0EFA09010051030A3F
:100D800001E1BFD0010A18E0030A01E0BDD0BFECC9
:100D900005F0000901E1BCD0DCEC05F0DF6E0901D3
:100DA0000151DF5C08E10A01056B0901020E006FC9
:100DB0000A01050E086FAAD0BFEC05F0000901E199
:100DC000A7D0DCEC05F0DF6E09010251DF5C01E029
:100DD0007CD0020EDB6A030EDB68D950030FE66E8F
:100DE000000EDA20E66E9ED8E552E552E76E020E5E
:100DF000E7CFDBFF020EDB50020A58E0030A05E0F2
:100E0000010A01E05DD064DF83D00A0109510A11B3
:100E10004BE0D950040FE66E000EDA20E66E070EA6
:100E2000E66E0A0EE66E070EE66E090EE66E05D059
:100E30000ACAFAFF0A010951F96EFADF0B6E060EB3
:100E4000E15E0B500A01066F0901FA0E856F0A0177
:100E5000062B07CA86F90A01062BDE52020EDD6E4A
:100E60000A010651F36E010EDBCFF4FFF350F45C80
:100E70001AE2040EDBCFE9FF050EDBCFEAFFEF50ED
:100E8000E66E010EDB50EA6A850FE96E090EEA2272
:100E9000E552E750EF6E040EDB2A050E01E3DB2A74
:100EA000010EDB2ADDD701D013DF0BD00901FA0ECA
:100EB000856F0A01062B07CA86F90A01062B01D0A5
:100EC00000D00901030E006F1BD00A010551052B4C
:100ED000EA6A050FE96E090EEA22DFCFEFFF800E06
:100EE0000A01055D0DE30901FA0E856F0A01062B63
:100EF0000901900E866F0A01062B0901030E006F8F
:100F000005D061D8E5DE02D0E3DE00D000C913FAD7
:100F1000060EE15C02E2E16AE552E16EE552E7CFDE
:100F2000D9FF1200D9CFE6FFE1CFD9FF020EE126AB
:100F30000A010505EA6A050FE96E090EEA22EFCFFC
:100F4000DFFF010EDB6AFA0E0901055D06E0FA0E0D
:100F50000901055D02E0000E2AD00A010505E66ED2
:100F6000050EE66E090EE66E9CD8E552E552E55296
:100F7000E76E010EE7CFDBFF010EDB50DF5C0DE11A
:100F80000A0105070A010551EA6A050FE96E090E13
:100F9000EA22EF6A010E0BD00AD0FD0EDBCFE9FF8B
:100FA000FE0EDBCFEAFF910EEF6E000E00D00B6E4F
:100FB000020EE15C02E2E16AE552E16E0B50E5529D
:100FC000E7CFD9FF1200D9CFE6FFE1CFD9FF020E5C
:100FD000E126DF6A010EDB6A06CAE6FF850EE66ED1
:100FE000090EE66E5ED8E552E552E552DF6E03C9A2
:100FF000E6FF74EC04F0E552010EDB6A0A010651CB
:10100000F36E010EDBCFF4FFF350F45C0FE2010E40
:10101000DB50EA6A850FE96E090EEA22EF50E66EB0
:1010200074EC04F0E552010EDB2AE8D7DFCFE6FFCF
:1010300074EC04F0E55204C9E6FF74EC04F0E552E8
:10104000B2EC04F0020EE15C02E2E16AE552E16E0C
:10105000E552E7CFD9FF1200D9CFE6FFE1CFD9FFA4
:10106000FD0EDBCFF6FFFE0EDBCFF7FF0800F550DD
:1010700012E0FD0EDBCFF6FFFE0EDBCFF7FF080020
:10108000F550E66E74EC04F0E552FD0EDB2AFE0E20
:1010900001E3DB2AE5D7B2EC04F0E552E7CFD9FF54
:1010A0001200D9CFE6FFE1CFD9FF030EE126DF6AB8
:1010B000010EDB6AFC0EDB50F36E010EDBCFF4FF9A
:1010C000F350F45C12E2010EDB50E76EFD0EDBCF55
:1010D000E9FFFE0EDBCFEAFFE750E926000EEA2229
:1010E000EF50DF1A010EDB2AE5D7DF5000D00B6E80
:1010F000030EE15C02E2E16AE552E16E0B50E5525B
:06110000E7CFD9FF120049
:0A110600DACFE4FFE2CFDAFFE9CF11
:10111000E4FFEACFE4FFF6CFE4FFF7CFE4FFF5CF3B
:10112000E4FFF3CFE4FFF4CFE4FFFACFE4FF00EEF7
:1011300000F00B0EE80403E3EECFE4FFFBD700EE74
:101140000BF0020EE80403E3EECFE4FFFBD7E65218
:10115000F2940E010E2B000E0F230E01102B000E29
:1011600011230E01122B000E13230E01142B000E5F
:1011700015230E01162B000E17230E011807000E63
:10118000195B0E01193504E218510008000E1955BB
:101190000AE30E011A2B000E1B231C231D23C80E6D
:1011A0000E01186F196B0E010251031107E005D0F3
:1011B00003CEFAFF0E010251F96EFADF00CEE6FF10
:1011C00001CEE6FF37EC0BF0E552E552E55200EEBA
:1011D0000CF0020EE80403E3E5CFEDFFFBD700EED1
:1011E0000AF00B0EE80403E3E5CFEDFFFBD7E5CFF4
:1011F000FAFFE5CFF4FFE5CFF3FFE5CFF5FFE5CF4D
:10120000F7FFE5CFF6FFE5CFEAFFE5CFE9FFE5CF52
:10121000DAFF1100DACFE4FFE2CFDAFFE9CFE4FF33
:10122000EACFE4FFF6CFE4FFF7CFE4FFF5CFE4FF2A
:10123000F3CFE4FFF4CFE4FFFACFE4FF00EE00F0D9
:101240000B0EE80403E3EECFE4FFFBD700EE0BF058
:10125000020EE80403E3EECFE4FFFBD7E652D9CF5A
:10126000E6FFE1CFD9FFE65218EC0BF0DF6E0B0181
:101270008351832BEA6A860FE96E0B0EEA22DFCFD9
:10128000EFFF800E0B01835D02E30B01836B0B010B
:10129000852B9E9AE552E552E7CFD9FFE55200EE45
:1012A0000CF0020EE80403E3E5CFEDFFFBD700EE00
:1012B0000AF00B0EE80403E3E5CFEDFFFBD7E5CF23
:1012C000FAFFE5CFF4FFE5CFF3FFE5CFF5FFE5CF7C
:1012D000F7FFE5CFF6FFE5CFEAFFE5CFE9FFE5CF82
:0412E000DAFF110020
:0C12E400D9CFE6FFE1CFD9FF9F0EE66EE8
:1012F00053EC0BF0E552FD0EDBCF00FEFE0EDBCF14
:1013000001FEFB0EDBCF02FEFC0EDBCF03FEF194F1
:10131000FD0EDBCFE6FFFE0EDBCFE6FF37EC0BF07A
:10132000E552E552E552E7CFD9FF1200D9CFE6FFEB
:10133000E1CFD9FF040EE126F29A1ACEDFFF010EAB
:101340001BCEDBFF020E1CCEDBFF030E1DCEDBFF30
:10135000F28ADECF04F0DECF05F0DECF06F0DDCF7F
:1013600007F0DD52DD5200D0040EE15C02E2E16ADA
:10137000E552E16EE552E7CFD9FF1200F29E0E0171
:0C1380001A6B1B6B1C6B1D6BF28E1200B5
:04138C002C0EF66EBF
:10139000000EF76E000EF86E0E010900F550E46FB6
:1013A0000900F550E56F03E1E46701D03DD0090085
:1013B000F550DF6F0900F550E06F0900F550E16F5F
:1013C00009000900F550E96E0900F550EA6E0900C0
:1013D00009000900F550E26F0900F550E36F0900BC
:1013E0000900F6CFE6FEF7CFE7FEF8CFE8FEDFCE46
:1013F000F6FFE0CEF7FFE1CEF8FF0E01E25302E187
:10140000E35307E00900F550EE6EE207F8E2E30768
:10141000F9D7E6CEF6FFE7CEF7FFE8CEF8FF0E01EC
:0A142000E407000EE55BBFD71200E1
:06142A00D9CFE6FFE1CF7F
:10143000D9FFE652CAEC0AF0000EE66EE66AE00E4C
:10144000E66EB10EE66E72EC09F0E552E552E55239
:10145000E5523BEC00F011EC00F00E01640E0E5D65
:10146000000E0F5905E392EC0BF00E010E6B0F6BA3
:101470000E01020E125D000E135905E37FEC06F01B
:101480000E01126B136B0E01320E145D000E155916
:1014900005E34EEC00F00E01146B156B0400DDD774
:0A14A000E552E552E7CFD9FF120034
:0614AA00D9CFE6FFDACF06
:1014B000E6FFE1CFD9FFE2CFDAFF726A716AFD0E73
:1014C000DBB07288DBA202D0728C718CDBB4728EBE
:1014D000DBA602D0718801D0718ADBA802D07284A9
:1014E00001D07294DBBA7186DBAC02D0A38A01D042
:1014F000A39ADBAE02D0A38801D0A398FB0EDB50E9
:10150000756EFC0EDBCF0CF00CC00BF00C6A0B50B0
:10151000766E728A718EE552E5CFDAFFE7CFD9FF9A
:021520001200B7
:0E152200D9CFE6FFDACFE6FFE1CFD9FFE2CF67
:10153000DAFFAC6AAB6AFD0EDBB0AC88DBA202D08E
:10154000AC8CAB8CDBB4AC8EDBA602D0AB8801D00C
:10155000AB8ADBB8AC84DBBAAB86DBAC02D09D8A4D
:1015600001D09D9ADBAE02D09D8801D09D98FB0EE4
:10157000DB50AF6EFC0EDBCF0CF00CC00BF00C6A36
:101580000B50B06EAC8AAB8EE552E5CFDAFFE7CFF9
:04159000D9FF12006D
:0C159400C26A0F01386B0F01396B0F01A8
:1015A0003A6B0F013B6B0F013C6B700ED36E969044
:1015B0008490949C948E9290929292949296929807
:1015C00096929694949094929494949695909592E1
:1015D000959495969498949A9598959A959C959E9D
:1015E00093909392939493969398939A939C939EAB
:0215F0001200E7
:0E15F200D9CFE6FFDACFE6FFE1CFD9FFE2CF97
:10160000DAFFE652F20E0E01EB1771AC03D0EB914C
:1016100071B0EB8171B4EB8571B2EB877450DF6E02
:10162000DF50E552E552E5CFDAFFE7CFD9FF1200F0
:10163000D9CFE6FFDACFE6FFE1CFD9FFE2CFDAFF7D
:10164000E652F20E0E01EC17ABAC03D0EC91ABB04E
:10165000EC81ABB4EC85ABB2EC87AE50DF6EDF5003
:0E166000E552E552E5CFDAFFE7CFD9FF1200E1
:02166E00D9CFD2
:10167000E6FFDACFE6FFE1CFD9FFE2CFDAFFE652AD
:10168000E652FC0EDBCFDEFFDBCFDDFF010EDB50D1
:10169000D76EDF50D66EE552E552E552E5CFDAFF60
:0616A000E7CFD9FF1200A4
:0A16A600D9CFE6FFDACFE6FFE1CF6F
:1016B000D9FFE2CFDAFFFD0EDB507F0BD56ED76A84
:1016C000D66AF294FD0EDBAE02D0F28A01D0F29A15
:0E16D000D58EE552E5CFDAFFE7CFD9FF120045
:0216DE00FF0EFD
:1016E000E3500D6E480E01D04C0EE76EE72EFED78C
:0E16F000E76AE72EFED70D2EF7D70000120096
:0216FE00380EA4
:10170000F36E00EE00F00F0E01D81200EA6002D076
:0E171000EE6AFCD7F350E9601200EE6AFCD7D7
:02171E000E01BA
:10172000EE6B12000E01EE0504E10E01EE6B8490EB
:0C17300004D00E01010EEE6F8480120048
:04173C0010EE60F05B
:1017400020EE60F0F86A0A9CC6EC09F003EC00F0A9
:0817500015EC0AF0FBD71200B2
:08175800000000000000000089
:101760000000000000000000000000000000000079
:101770000000000000000000000000000000000069
:101780000000000000000000000000000000000059
:101790000000000000000000000000000000000049
:1017A0000000000000000000000000000000000039
:1017B0000000000000000000000000000000000029
:1017C0000000000000000000000000000000000019
:1017D0000000000000000000000000000000000009
:1017E00000000000000000000000000000000000F9
:1017F00000000000000000000000000000000000E9
:1018000000000000000000000000000000000000D8
:1018100000000000000000000000000000000000C8
:1018200000000000000000000000000000000000B8
:1018300000000000000000000000000000000000A8
:101840000000000000000000000000000000000098
:0E18500000000000000000000000000000008A
:02185E00000088
:101860000000000000000000000000000000000078
:0C187000000000000000C80000000000A4
:04187C000000000068
:101880000000000000000000000000000000000058
:101890000000000000000000000000000000000048
:1018A0000000000000000000000000000000000038
:1018B0000000000000000000000000000000000028
:1018C0000000000000000000000000000000000018
:1018D0000000000000000000000000000000000008
:1018E00000000000000000000000000000000000F8
:1018F00000000000000000000000000000000000E8
:1019000000000000000000000000000000000000D7
:1019100000000000000000000000000000000000C7
:1019200000000000000000000000000000000000B7
:1019300000000000000000000000000000000000A7
:101940000000000000000000000000000000000097
:101950000000000000000000000000000000000087
:101960000000000000000000000000000000000077
:101970000000000000000000000000000000000067
:101980000000000000000000000000000000000057
:101990000000000000000000000000000000000047
:1019A0000000000000000000000000000000000037
:1019B0000000000000000000000000000000000027
:1019C0000000000000000000000000000000000017
:1019D0000000000000000000000000000000000007
:1019E00000000000000000000000000000000000F7
:1019F00000000000000000000000000000000000E7
:101A000000000000000000000000000000000000D6
:101A100000000000000000000000000000000000C6
:101A200000000000000000000000000000000000B6
:101A300000000000000000000000000000000000A6
:101A40000000000000000000000000000000000096
:011A50000095
:020000040030CA
:0100010008F6
:0100020001FC
:0100030024D8
:01000500BD3D
:010006008079
:010008000FE8
:01000900C036
:01000A000FE6
:01000B00E014
:01000C000FE4
:01000D0040B2
:00000001FF
